{
  "contractName": "Ballot",
  "abi": [
    {
      "constant": true,
      "inputs": [
        {
          "name": "",
          "type": "uint256"
        }
      ],
      "name": "proposals",
      "outputs": [
        {
          "name": "",
          "type": "uint256"
        }
      ],
      "payable": false,
      "stateMutability": "view",
      "type": "function"
    },
    {
      "constant": false,
      "inputs": [
        {
          "name": "toVoter",
          "type": "address"
        }
      ],
      "name": "register",
      "outputs": [],
      "payable": false,
      "stateMutability": "nonpayable",
      "type": "function"
    },
    {
      "constant": true,
      "inputs": [],
      "name": "winningProposal",
      "outputs": [
        {
          "name": "_winningProposal",
          "type": "uint8"
        }
      ],
      "payable": false,
      "stateMutability": "view",
      "type": "function"
    },
    {
      "constant": true,
      "inputs": [
        {
          "name": "",
          "type": "address"
        }
      ],
      "name": "voters",
      "outputs": [
        {
          "name": "weight",
          "type": "uint256"
        },
        {
          "name": "voted",
          "type": "bool"
        },
        {
          "name": "vote",
          "type": "uint8"
        }
      ],
      "payable": false,
      "stateMutability": "view",
      "type": "function"
    },
    {
      "constant": true,
      "inputs": [],
      "name": "getCount",
      "outputs": [
        {
          "name": "",
          "type": "uint256[4]"
        }
      ],
      "payable": false,
      "stateMutability": "view",
      "type": "function"
    },
    {
      "constant": false,
      "inputs": [
        {
          "name": "toProposal",
          "type": "uint8"
        }
      ],
      "name": "vote",
      "outputs": [],
      "payable": false,
      "stateMutability": "nonpayable",
      "type": "function"
    },
    {
      "inputs": [],
      "payable": false,
      "stateMutability": "nonpayable",
      "type": "constructor"
    }
  ],
  "bytecode": "0x6060604052341561000f57600080fd5b336000806101000a81548173ffffffffffffffffffffffffffffffffffffffff021916908373ffffffffffffffffffffffffffffffffffffffff1602179055506002600160008060009054906101000a900473ffffffffffffffffffffffffffffffffffffffff1673ffffffffffffffffffffffffffffffffffffffff1673ffffffffffffffffffffffffffffffffffffffff1681526020019081526020016000206000018190555061057f806100c76000396000f300606060405260043610610078576000357c0100000000000000000000000000000000000000000000000000000000900463ffffffff168063013cf08b1461007d5780634420e486146100b4578063609ff1bd146100ed578063a3ec138d1461011c578063a87d942c14610181578063b3f98adc146101d2575b600080fd5b341561008857600080fd5b61009e60048080359060200190919050506101f8565b6040518082815260200191505060405180910390f35b34156100bf57600080fd5b6100eb600480803573ffffffffffffffffffffffffffffffffffffffff16906020019091905050610212565b005b34156100f857600080fd5b61010061036a565b604051808260ff1660ff16815260200191505060405180910390f35b341561012757600080fd5b610153600480803573ffffffffffffffffffffffffffffffffffffffff169060200190919050506103ca565b60405180848152602001831515151581526020018260ff1660ff168152602001935050505060405180910390f35b341561018c57600080fd5b61019461040e565b6040518082600460200280838360005b838110156101bf5780820151818401526020810190506101a4565b5050505090500191505060405180910390f35b34156101dd57600080fd5b6101f6600480803560ff16906020019091905050610459565b005b60028160048110151561020757fe5b016000915090505481565b6000809054906101000a900473ffffffffffffffffffffffffffffffffffffffff1673ffffffffffffffffffffffffffffffffffffffff163373ffffffffffffffffffffffffffffffffffffffff161415806102ba5750600160008273ffffffffffffffffffffffffffffffffffffffff1673ffffffffffffffffffffffffffffffffffffffff16815260200190815260200160002060010160009054906101000a900460ff165b156102c457610367565b60018060008373ffffffffffffffffffffffffffffffffffffffff1673ffffffffffffffffffffffffffffffffffffffff168152602001908152602001600020600001819055506000600160008373ffffffffffffffffffffffffffffffffffffffff1673ffffffffffffffffffffffffffffffffffffffff16815260200190815260200160002060010160006101000a81548160ff0219169083151502179055505b50565b6000806000809150600090505b60048160ff1610156103c5578160028260ff1660048110151561039657fe5b015411156103b85760028160ff166004811015156103b057fe5b015491508092505b8080600101915050610377565b505090565b60016020528060005260406000206000915090508060000154908060010160009054906101000a900460ff16908060010160019054906101000a900460ff16905083565b61041661052b565b600260048060200260405190810160405280929190826004801561044f576020028201915b81548152602001906001019080831161043b575b5050505050905090565b6000600160003373ffffffffffffffffffffffffffffffffffffffff1673ffffffffffffffffffffffffffffffffffffffff16815260200190815260200160002090508060010160009054906101000a900460ff16806104bd575060048260ff1610155b156104c757610527565b60018160010160006101000a81548160ff021916908315150217905550818160010160016101000a81548160ff021916908360ff160217905550806000015460028360ff1660048110151561051857fe5b01600082825401925050819055505b5050565b6080604051908101604052806004905b600081526020019060019003908161053b57905050905600a165627a7a7230582039e3c3eca46be8ba2ffc13aa580fb91f81bb1b795ae02c9a6572c52dd7c8bbe40029",
  "source": "pragma solidity ^0.4.4;\n\n\ncontract Ballot {\n\n    struct Voter {\n        uint weight;\n        bool voted;\n        uint8 vote; /// address delegate;\n    }\n\n    /* struct Proposal {\n        uint voteCount; // could add other data about proposal\n    } */\n    address chairperson;\n    mapping(address => Voter) public voters;\n    uint[4] public proposals;\n\n    /// Create a new ballot with $(_numProposals) different proposals.\n    function Ballot() public {\n        chairperson = msg.sender;\n        voters[chairperson].weight = 2;\n\n\n    }\n\n    /// Give $(toVoter) the right to vote on this ballot.\n    /// May only be called by $(chairperson).\n    function register(address toVoter) public {\n        if (msg.sender != chairperson || voters[toVoter].voted) return;\n        voters[toVoter].weight = 1;\n        voters[toVoter].voted = false;\n    }\n\n    /// Give a single vote to proposal $(toProposal).\n    function vote(uint8 toProposal) public {\n\n        Voter storage sender = voters[msg.sender];\n        if (sender.voted || toProposal >= 4) return;\n        sender.voted = true;\n        sender.vote = toProposal;\n        proposals[toProposal] += sender.weight;\n    }\n\n    function winningProposal() public constant returns (uint8 _winningProposal) {\n        uint256 winningVoteCount = 0;\n        for (uint8 prop = 0; prop < 4; prop++)\n            if (proposals[prop] > winningVoteCount) {\n                winningVoteCount = proposals[prop];\n                _winningProposal = prop;\n            }\n    }\n\n    function getCount() public constant returns (uint[4]) {\n        return proposals;\n    }\n\n}\n",
  "sourcePath": "/Users/arunchandrapendyala/Desktop/IndependentStudy_Project/ballot/contracts/ballotv1.sol",
  "compiler": {
    "name": "solc",
    "version": "0.4.18+commit.9cf6e910.Emscripten.clang"
  },
  "schemaVersion": "1.0.1",
  "updatedAt": "2018-01-30T04:46:40.193Z"
}